{
  "contractName": "Trip",
  "abi": [
    {
      "constant": false,
      "inputs": [
        {
          "name": "x",
          "type": "uint256"
        }
      ],
      "name": "sqrt",
      "outputs": [
        {
          "name": "y",
          "type": "uint256"
        }
      ],
      "payable": false,
      "stateMutability": "nonpayable",
      "type": "function"
    }
  ],
  "bytecode": "0x60806040526000600360006101000a81548160ff02191690831515021790555034801561002b57600080fd5b5060f48061003a6000396000f300608060405260043610603f576000357c0100000000000000000000000000000000000000000000000000000000900463ffffffff168063677342ce146044575b600080fd5b348015604f57600080fd5b50606c600480360381019080803590602001909291905050506082565b6040518082815260200191505060405180910390f35b600080600260018401811515609357fe5b0490508291505b8181101560c257809150600281828581151560b157fe5b040181151560bb57fe5b049050609a565b509190505600a165627a7a72305820ec9c4be32cb385af2e7e73611a5afa37974541bb4edb3c77261a174a32b458f90029",
  "source": "pragma solidity ^0.4.24;\n\ncontract Trip{\n    \n    struct location{\n        uint X;\n        uint Y;\n    }\n    \n    struct driver{\n        location dloc;\n        uint rate;\n    }\n    \n    mapping (address => location) driverLocations;\n    \n    address passenger;\n    uint fee;\n    bool tripping = false;\n    \n    location source;\n    location destination;\n    \n    driver driverInstance;\n    \n    // function Trip(uint sourceX_, uint sourceY_, uint destinationX_, uint destinationY_){\n    //     source.X = sourceX_;\n    //     source.Y = sourceY_;\n    //     destination.X = destinationX_;\n    //     destination.Y = destinationY_;\n    //     passenger = msg.sender;\n    // }\n    \n    function sqrt(uint x) returns (uint y) {\n        uint z = (x + 1) / 2;\n        y = x;\n        while (z < y) {\n            y = z;\n            z = (x / z + z) / 2;\n        }\n    }\n    \n    modifier passengerHasEnoughDeposit(){\n        require(msg.value > fee);\n        _;\n    }\n    \n    modifier sameLocation(){\n        require(sqrt((driverInstance.dloc.X - source.X)**2 + (driverInstance.dloc.Y - source.Y)**2) <= 5);\n        _;\n    }\n    \n    function calculateFee() private returns (bool){\n        fee = sqrt((destination.X - source.X)**2 + (destination.Y - source.Y)**2)*1 ether;\n        \n        if((msg.value > fee))\n            return true;\n        else\n            return false;\n    }\n    \n    // function tripRequest() private passengerHasEnoughDeposit{\n    //     _;\n    // }\n    \n    function startTrip() private sameLocation{\n        tripping = true;\n        \n    }\n}",
  "sourcePath": "/Users/MohammadAli/Desktop/AUT/e-payment/project/BiaBerim/sTaxi/contracts/Trip.sol",
  "compiler": {
    "name": "solc",
    "version": "0.4.24+commit.e67f0147.Emscripten.clang"
  },
  "schemaVersion": "2.0.1",
  "updatedAt": "2018-07-15T07:10:27.832Z"
}